:020000040800F2
:100000003008002089010008491500084115000842
:1000100045150008450200085D15000800000000B5
:100020000000000000000000000000005115000862
:1000300049020008000000004D1500085515000891
:10004000A3010008A3010008A3010008A301000800
:10005000A3010008A3010008A3010008A3010008F0
:10006000A3010008A3010008A3010008A3010008E0
:10007000A3010008A3010008A3010008A3010008D0
:10008000A3010008A3010008A3010008A3010008C0
:10009000A3010008A3010008A3010008A3010008B0
:1000A000A3010008A3010008A3010008A3010008A0
:1000B000A3010008A3010008A3010008A301000890
:1000C000A3010008A3010008A3010008A301000880
:1000D000A3010008A3010008A3010008A301000870
:1000E000A3010008A3010008A301000800F002F822
:1000F00000F03AF80AA090E8000C82448344AAF188
:100100000107DA4501D100F02FF8AFF2090EBAE885
:100110000F0013F0010F18BFFB1A43F0010318473B
:10012000B01E0000D01E0000103A24BF78C878C16D
:10013000FAD8520724BF30C830C144BF04680C60ED
:10014000704700000023002400250026103A28BF35
:1001500078C1FBD8520728BF30C148BF0B60704739
:100160001FB51FBD10B510BD00F031F81146FFF7E7
:10017000F7FF01F05BFB00F04FF803B4FFF7F2FF6D
:1001800003BC00F057F800000948804709480047C1
:10019000FEE7FEE7FEE7FEE7FEE7FEE7FEE7FEE737
:1001A000FEE7FEE704480549054A064B7047000094
:1001B00059150008ED00000830020020300800202A
:1001C00030040020300400207047704770477546A7
:1001D00000F02CF8AE4605006946534620F00700B3
:1001E000854618B020B5FFF7DDFFBDE820404FF091
:1001F00000064FF000074FF000084FF0000BAC4630
:10020000ACE8C009ACE8C009ACE8C009ACE8C0097A
:1002100021F007018D46704710B50446AFF300800A
:100220002046BDE81040FFF7A8BF00000048704717
:100230002801002001491820ABBEFEE7260002007D
:1002400070470000FEE70000704700002DE9F04114
:1002500040F60004C4F201040546204602210022B3
:1002600000F00AFA20460121002200F005FA40F2CF
:100270001008C5EBC506C2F2000808EB86073D462C
:1002800055F81C0F012805D120460421012200F059
:10029000F3F9286820B920460421002200F0ECF987
:1002A00020460121012200F0E7F920460121002229
:1002B00000F0E2F93D4655F8180F012805D1204617
:1002C0000421012200F0D8F9286820B92046042131
:1002D000002200F0D1F920460121012200F0CCF9E2
:1002E00020460121002200F0C7F93D4655F8140FC1
:1002F000012805D120460421012200F0BDF928681B
:1003000020B920460421002200F0B6F92046012140
:10031000012200F0B1F920460121002200F0ACF9E1
:100320003D4655F8100F012805D120460421012231
:1003300000F0A2F9286820B920460421002200F02C
:100340009BF920460121012200F096F92046012167
:10035000002200F091F93D4655F80C0F012805D117
:1003600020460421012200F087F9286820B92046A0
:100370000421002200F080F920460121012200F032
:100380007BF920460121002200F076F93D4655F820
:10039000080F012805D120460421012200F06CF944
:1003A000286820B920460421002200F065F9204683
:1003B0000121012200F060F920460121002200F015
:1003C0005BF93D4655F8040F012805D1204604216C
:1003D000012200F051F9286820B9204604210022AA
:1003E00000F04AF920460121012200F045F920469B
:1003F0000121002200F040F958F82600012805D11B
:1004000020460421012200F037F9386820B920463F
:100410000421002200F030F920460121012200F0E1
:100420002BF9204602210122BDE8F04100F024B959
:10043000B0B5044600F026F9054640F20000C2F2CD
:1004400000000078611C18BF044400BF00F01AF9D6
:10045000401BA042FAD3B0BD2DE9F04F82B041F26B
:100460000042C4F201020E680423904208BF032335
:10047000002E009300F0F68040F20C4E4FF6FF7C09
:10048000C4F2010E00220124C1F2100C4FF0000A48
:100490004FF0000943E000BF012502F00C040F27D4
:1004A000A7402BEA070705FA04F43C4343F826402B
:1004B000D1F804B040F20045C4F201055FEACB3345
:1004C0002B6854BF23EA080343EA08032B606B68D8
:1004D0005FEA8B3454BF23EA080343EA08036B60E6
:1004E0005FEACB24AB6854BF23EA080343EA08035E
:1004F0005FEA8B24AB60DEF800304FF0010454BF9C
:1005000023EA080343EA0803CEF800300E680AF134
:10051000010A36FA0AF302F1040200F0A38004FA99
:100520000AF816EA080FF1D04B68634512DC122B6B
:1005300056D8DFE803F0350B454955555555555507
:10054000555555555555554D510000BFD1F80C9096
:1005500046E000BF4FF6FF77C1F22107BB420FDC38
:100560000027C1F21107BB421AD00027C1F21207BF
:10057000BB4215D00027C1F22107BB4210D02FE0AB
:100580000027C1F22207BB420AD00027C1F231077F
:10059000BB4205D00027C1F23207BB4220D100BFC9
:1005A0008B684BB1012B14BFC0F81480C0F81080C9
:1005B0004FF0080914E000BF4FF0040910E000BF3D
:1005C000CB6803F108090BE04FF0000908E000BF19
:1005D000CB6803F1040903E0CB6803F10C0900BF09
:1005E00013460546BAF1080F24BF203B04352E6898
:1005F0000F279F40BE4309FA03F333432B60CB79A7
:10060000DB067FF583AF41F21804C4F202042368CD
:100610004FEA9A0643F001032360236840F6000482
:1006200003F001030193019B40F20043C4F2010374
:10063000A3F57E7353F826B0C4F20104A0420FD094
:1006400040F60044C4F20104A0423FF425AF41F259
:100650000004C4F20104009DA04208BF02251CE76B
:1006600000251AE702B0BDE8F08F0000806808405E
:1006700018BF012070470000002A08BF090401616B
:100680007047000040F22820C2F200000068704766
:1006900040F2000040F22821C2F20000C2F2000144
:1006A00000780A68104408607047000080B542F284
:1006B0000000C4F20200016841F010010160032053
:1006C00000F07AF80F2000F005F800F027F800207D
:1006D00080BD000070B540F20006C2F2000640F294
:1006E00008013278C2F200014FF47A730968B3FB53
:1006F000F2F20446B1FBF2F1084600F027FB0F2CA2
:100700004FF0010508D838B94FF0FF3021460022DC
:10071000002500F025F87460284670BD82B041F2D3
:100720001800C4F202000168022241F001010160D8
:10073000016801F0010101910199416841F0805186
:100740004160406800F08050009000980420C4F29E
:100750000100016862F31A61016002B07047000095
:1007600010B54EF60C5CCEF2000CDCF80030C3F392
:10077000022E8EF00704042C28BF0424BEF10303CC
:100780004FF0FF3E0EFA04F438BF0023A143994016
:100790000EFA03F39A43114300F00F02043A624445
:1007A00009010C3200F16043B0F1FF3FC8BF03F50F
:1007B0006442117010BD00004EF60C51CEF20001E3
:1007C0000A684FF6FF031A4060F30A2242F0806085
:1007D00040F0FD70086070472DE9F04381B00028BB
:1007E00000F0858042F20008C4F202080446D8F8FE
:1007F00000000D4600F0070088420CD2D8F8000037
:1008000020F007002843C8F80000D8F8000000F0E6
:100810000700A8426BD1206841F204098107C4F2A5
:10082000020917D5410705D5D9F8001041F4E06158
:10083000C9F80010010705D5D9F8001041F460513E
:10084000C9F80010D9F80010A26821F0F001114396
:10085000C9F80010C00741D1D8F8000000F0070027
:10086000A8420CD9D8F8000020F007002843C8F8A7
:100870000000D8F8000000F00700A84237D1206837
:10088000410707D5D9F80010E26821F4E06111436F
:10089000C9F80010000708D5D9F80000216920F434
:1008A000605040EAC100C9F80000D9F8002002F009
:1008B0000C00082841F20020C0F27A0050D141F625
:1008C000C073C2F38341C0F60003595CD2033BD42A
:1008D00040F60010C0F23D00484341E06068022845
:1008E0000AD001282AD159F8041C890308D4012010
:1008F00001B0BDE8F08300BF59F8041C8901F6D5AA
:10090000D9F8001021F003010843C9F80000FFF7EF
:10091000B9FE064641F28837D9F80000616800F058
:100920000C00B0EB810F97D0FFF7ACFE801BB842F4
:10093000F2D9032001B0BDE8F08300BF59F8041CD0
:100940008907D4D5DCE700BFD9F8002041F6AE73A3
:10095000C2F34042C0F600039A5C4843B0FBF2F099
:10096000D9F8001041F6B072C1F30311C0F60002CD
:10097000515C40F2080220FA01F140F20400C2F298
:1009800000000068C2F200021160FFF7A3FE002021
:1009900001B0BDE8F08300002DE9F04182B00028ED
:1009A00068D00446007841F20006C007C4F202068F
:1009B00025D0706800F00C0004281BD0706800F08F
:1009C0000C00082802D17068C00313D460680028A6
:1009D00000F06881B0F5A02F00F07C81B0F5803F79
:1009E00000F07C81306820F480303060306820F482
:1009F000802076E13068800301D56068D0B320782C
:100A0000800718D5706810F00C0F07D0706800F0E0
:100A10000C0008286ED17068C0036BD43068800762
:100A200002D52069012825D13068616920F0F800DD
:100A300040EAC1003060207800071FD420784007CA
:100A400032D4E56995B1706800F00C00082840F0D8
:100A50008F80012D0ED07068216A00F480328A42A6
:100A600008D1616A00F47010884203D1002002B0FE
:100A7000BDE8F081012002B0BDE8F081A069002846
:100A800062D00020C4F242200121C0F88014FFF798
:100A9000F9FD0546706A800700F18C80FFF7F2FDD2
:100AA000401B0228F6D92AE1F06910F0805808D1DD
:100AB000F06940F08050F061F06900F080500090E3
:100AC000009847F20007C4F200073868C00529D42F
:100AD000386840F480703860FFF7D4FD054600BFE9
:100AE0003868C0051ED4FFF7CDFD401B6428F7D938
:100AF00005E100BF2069002840F20000C4F2422056
:100B000000F0828001210160FFF7BCFD054600BFB7
:100B1000306880073FF588AFFFF7B4FD401B02281F
:100B2000F6D9ECE0E068002800F08080052800F0AD
:100B30009780012800F09880306A20F00100306230
:100B4000306A20F0040092E00020C4F2422000212C
:100B5000C0F88014FFF796FD054600BF706A800755
:100B60007FF56CAFFFF78EFD401B0228F6D9C6E07B
:100B70000027C4F2422700203866FFF783FD022DCC
:100B800005460BD13068800140F1BE80FFF77AFD49
:100B9000401B02284FF00300F4D968E73068800159
:100BA0007FF564AFFFF76EFD401B02284FF0030096
:100BB000F4D95CE740F20800C2F20000006844F695
:100BC000D351C1F26201A0FB0101480A019000BFAC
:100BD00000BF0198411E002801913FF42FAF00BFD4
:100BE0000198411E002801913FF428AF00BF0198F1
:100BF000411E002801913FF421AF00BF0198411E22
:100C000000280191E4D119E700210160FFF73AFDC6
:100C1000054600BF306880077FF50DAFFFF732FD56
:100C2000401B02284FF00300F4D920E7306A20F07F
:100C300001003062306A20F004003062FFF722FDCC
:100C4000054641F2883700BF306A800720D5FFF79C
:100C500019FD401BB8424FF00300F5D907E700BF6C
:100C6000306A40F004003062306A40F001003062C7
:100C7000FFF708FD054641F2883700BF306A80075C
:100C800006D4FFF7FFFC401BB842F7D937E000BF9E
:100C9000B8F1000F7FF4D5AEF06920F08050F0611C
:100CA000CFE600BF306820F480303060306820F438
:100CB00080203060FFF7E6FC054600BF3068800307
:100CC0007FF59DAEFFF7DEFC401B64284FF003006C
:100CD000F4D9CCE6306840F480203060306840F4CD
:100CE00080303060FFF7CEFC054600BF30688003DF
:100CF0003FF585AEFFF7C6FC401B6428F6D90320FC
:100D000002B0BDE8F08100BF206AB0F5803F05D198
:100D10007168A26821F40031114371607168626AE0
:100D200021F4741110430843706001203866FFF706
:100D3000A9FC0446306880013FF598AEFFF7A2FC9D
:100D4000001B02284FF00300F4D990E6411E00205A
:100D5000B0EB116F1CBF012070474EF21002CEF2B3
:100D6000000251604EF62351CEF20001F0230B70C9
:100D7000072190601160704710B590F83C20012A5F
:100D80004FF0020233D080F83D200268D2F804E030
:100D9000D2F808C00C682EF07003234340F2FF74B1
:100DA000C4F20004A24253600ADCB2F1804F13D0B7
:100DB00040F20043C4F200039A420DD011E000BF9C
:100DC00042F60043C4F201039A4205D040F6000304
:100DD000C4F200039A4204D149682CF080031943FD
:100DE00091600121002280F83D1080F83C201046DF
:100DF00010BD0000002804BF0120704710B5044654
:100E000090F83D0028B9002084F83C00204600F00E
:100E100067F8022084F83D00206840F2FF73026802
:100E2000C4F2000342F6004C9842C4F2010C15DCF7
:100E3000B0F1804F1AD040F20041C4F20001884264
:100E400014D0984218DCB0F1804F1DD040F2004120
:100E5000C4F20001884217D01AE000BF604505D0F7
:100E600040F60001C4F200018842EAD1A16822F0F4
:100E700070020A439842E6DD604505D040F6000165
:100E8000C4F20001884203D1216922F440720A436E
:100E9000A36922F08001D4F804E0E26819436045B8
:100EA0000160C262C0F828E002D16169CCF830105C
:100EB00001214161002084F8461084F83E1084F836
:100EC0003F1084F8401084F8411084F8421084F8F0
:100ED000431084F8441084F8451084F83D1010BD88
:100EE00082B0006840F20041C4F20001884211D093
:100EF000B0F1804F1BD141F21C00C4F20200016826
:100F000041F001010160006800F0010001900198CA
:100F100002B0704741F21C00C4F20200016841F0C7
:100F200002010160006800F002000090009802B029
:100F30007047000090F83D1001291CBF0120704748
:100F4000022180F83D10006840F2FF71C4F20001F8
:100F5000884209DCB0F1804F12D040F20041C4F267
:100F6000000188420CD012E042F60041C4F20101B7
:100F7000884205D040F60001C4F20001884206D143
:100F8000816801F00701062904BF0020704701684D
:100F900041F00101016000207047000080B590F829
:100FA0003C20012A4FF0020200F0BF8080F83D2073
:100FB000D0F800C04FF67772DCF8083023EA02025E
:100FC000CCF808200B683F2B1CDD5F2B20DD602B4D
:100FD00050D0B3F5005F6DD0702B40F0A080D1E908
:100FE00001E3C968DCF8082043EA0E0322F47F42DB
:100FF00043EA01211143CCF80810DCF8081041F055
:1010000077018AE01F2B29DC63B3102B2AD086E0FE
:10101000402B63D0502B40F08280D1F804E0C968A7
:10102000DCF82030DCF8202022F00102CCF820206F
:10103000DCF8182022F0F00242EA011123F00A0243
:1010400042EA0E02CCF81810CCF82020DCF8081088
:1010500041F0570121F020015FE000BF202B01D0BB
:10106000302B5CD1DCF8081021F07001194341F0FD
:10107000070152E0D1F804E0C968DCF8203023F021
:101080001003CCF82030DCF81830DCF8202023F4F2
:10109000704322F0A00243EA013142EA0E12CCF87A
:1010A0001810CCF82020DCF8081041F0670121F07E
:1010B000100132E0D1E901E3C968DCF8082043EA15
:1010C0000E0322F47F4243EA01211143CCF80810B9
:1010D000DCF8081041F480411FE000BFD1F804E0C3
:1010E000C968DCF82030DCF8202022F00102CCF8BE
:1010F0002020DCF8182022F0F00242EA011123F04F
:101100000A0242EA0E02CCF81810CCF82020DCF8D3
:10111000081041F0470121F03001CCF808100121FE
:10112000002280F83D1080F83C20104680BD000071
:1011300080B586B000680021B0F1804F049101D0E5
:1011400006B080BD41F21800C4F20200016841F00F
:1011500004010160006802A900F0040001900198F8
:101160000820029002200390059040F60000C4F28F
:101170000100FFF771F906B080BD00002DE9F043D2
:1011800090F83C30012B04BF0220BDE8F0834FEA09
:10119000B202032A00F2E580DFE802F0023A76B0FC
:1011A000036842F600461A6AC4F2010622F0010200
:1011B0001A621D6A1A465C6852F818CFB3428E68EC
:1011C000D1F800E025F0020545EA06050CD1CE680D
:1011D000D1E9057824F4407425F00C0526F00406C6
:1011E0003C43354344EA08042CF0730747EA0E07F2
:1011F0005C609F614F6809695F631D629F6947F08A
:1012000008079F619F6927F004079F61A6E000BF60
:10121000036842F600461A6AC4F2010622F0100280
:101220001A621D6A1A46D3F804C052F8184FB34226
:101230008E68D1F800E025F0200545EA06150FD1AB
:10124000CE68D1E905986FF0400707EA06162CF43E
:10125000406725F0C00547EA8907354347EA880C0F
:1012600024F4E64444EA0E27C3F804C09F614F68A3
:1012700009699F631D629F6947F400679F619F69C9
:1012800027F480679F6168E0036842F600461A6AA7
:10129000C4F2010622F480721A621D6A1A46D3F85B
:1012A00004C052F81CEFB3428E680C6825F4007538
:1012B00045EA06250FD1CE68D1E90598360240F2FD
:1012C000FF47BE432CF4405725F4406547EA091711
:1012D000354347EA081C2EF073072743C3F804C0C0
:1012E000DF614F680969DF631D62DF6947F0080746
:1012F000DF61DF6927F00407DF612FE0036842F652
:1013000000471A6AC4F2010722F480521A621A4690
:10131000D3F820C05D6852F81C4FD1F800E08E6809
:10132000BB4204D14F6925F4804545EA87152CF46A
:10133000005747EA063724F4E64646EA0E265D6083
:10134000DE614E6809691E641F62DF6947F4006749
:10135000DF61DF6927F48067DF61090213681943E1
:101360001160002180F83C100846BDE8F0830000C1
:10137000002804BF0120704710B5044690F83D00D6
:1013800028B9002084F83C00204600F067F80220CD
:1013900084F83D00206840F2FF730268C4F2000345
:1013A00042F6004C9842C4F2010C15DCB0F1804FBB
:1013B0001AD040F20041C4F20001884214D0984291
:1013C00018DCB0F1804F1DD040F20041C4F20001A2
:1013D000884217D01AE000BF604505D040F60001F2
:1013E000C4F200018842EAD1A16822F070020A43E7
:1013F0009842E6DD604505D040F60001C4F20001E8
:10140000884203D1216922F440720A43A36922F081
:101410008001D4F804E0E268194360450160C262CB
:10142000C0F828E002D16169CCF830100121416197
:10143000002084F8461084F83E1084F83F1084F8A9
:10144000401084F8411084F8421084F8431084F866
:10145000441084F8451084F83D1010BD704700001A
:1014600041B1082910D0042914BF00F1410200F154
:101470003F020BE090F83E20012A1CBF012070477C
:10148000022280F83E2013E000F140021278012A87
:101490001CBF012070470222082907D0042914BF6D
:1014A00080F8412080F83F2002E000BF80F8402013
:1014B000006801F01F010122036A8A4023EA020149
:1014C0000162036A42F64441C4F201011A43A1F1E8
:1014D0004403984202620FD040F2FF71C4F200014F
:1014E000884213DCB0F1804F1CD040F20041C4F2BE
:1014F0000001884216D01CE00A6842F400420A60EB
:1015000040F2FF71C4F200018842EBDD42F6004177
:10151000C4F20101884205D040F60001C4F2000186
:10152000884206D1816801F00701062904BF002026
:101530007047016841F00101016000207047000020
:10154000FEE70000FEE70000FEE700007047000035
:1015500070470000FFF79CB870470000FEE70000EE
:101560002DE9F04381B040F60004C4F2010440F2DA
:101570000C0840F288174FF00009C2F2000804F589
:101580008065C2F20007002605E000BF0136B6F50F
:10159000FA7F00F04781D8F80000FEF757FE284692
:1015A00002210122FFF768F8284601210022FFF7F7
:1015B00063F8204680210022FFF75EF82046402194
:1015C0000122FFF759F83869C0F82490416AC90828
:1015D0007C290BD8416AC9087C2907D8416AC90807
:1015E0007C2903D8416AB1F57A7FEFD328460221DE
:1015F0000022FFF741F8284601210022FFF73CF8BE
:10160000204680210022FFF737F8204640210122A2
:10161000FFF732F83869C0F8249000BF416AC90862
:101620007C290BD8416AC9087C2907D8416AC908B6
:101630007C2903D8416AB1F57A7FEFD3284602218D
:101640000022FFF719F8284601210022FFF714F8BD
:10165000204680210122FFF70FF820464021012279
:10166000FFF70AF83869C0F8249000BF416AC9083A
:101670007C290BD8416AC9087C2907D8416AC90866
:101680007C2903D8416AB1F57A7FEFD3284602213D
:101690000022FEF7F1FF284601210022FEF7ECFFB1
:1016A000204680210122FEF7E7FF2046402100224C
:1016B000FEF7E2FF3869C0F8249000BF416AC9080C
:1016C0007C290BD8416AC9087C2907D8416AC90816
:1016D0007C2903D8416AB1F57A7FEFD328460221ED
:1016E0000022FEF7C9FF284601210122FEF7C4FFB0
:1016F000204680210122FEF7BFFF20464021002224
:10170000FEF7BAFF3869C0F8249000BF416AC908E3
:101710007C290BD8416AC9087C2907D8416AC908C5
:101720007C2903D8416AB1F57A7FEFD3284602219C
:101730000022FEF7A1FF284601210122FEF79CFFAF
:10174000204680210022FEF797FF204640210022FC
:10175000FEF792FF3869C0F8249000BF416AC908BB
:101760007C290BD8416AC9087C2907D8416AC90875
:101770007C2903D8416AB1F57A7FEFD3284602214C
:101780000122FEF779FF284601210122FEF774FFAE
:10179000204680210022FEF76FFF204640210022D4
:1017A000FEF76AFF3869C0F8249000BF416AC90893
:1017B0007C290BD8416AC9087C2907D8416AC90825
:1017C0007C2903D8416AB1F57A7FEFD328460221FC
:1017D0000122FEF751FF284601210022FEF74CFFAF
:1017E000204680210022FEF747FF204640210022AC
:1017F000FEF742FF3869C0F8249000BF416AC9086B
:101800007C293FF6C3AE416AC9087C293FF6BEAECB
:10181000416AC9087C293FF6B9AE416AB1F57A7FC1
:10182000ECD3B3E601B0BDE8F083000092B0FEF760
:101830003DFF00240120CDE90B44CDE90944069089
:101840000A904FF4E0104FF4803102250F9006A863
:10185000CDE90714CDE90D51FFF79EF820B1EFF364
:10186000108072B6FEE700BF0F20CDE900054FF4EF
:101870008060CDE90304684602210294FEF7ACFFC4
:1018800020B1EFF3108072B6FEE700BF41F21800FE
:10189000C4F20200016840F6004941F020010160F5
:1018A0000168C4F2010901F020010691069901685E
:1018B000A9F5806541F0040101600168002201F092
:1018C0000401069106990168C72641F008010160EC
:1018D0000068C72100F008000690069828460027F7
:1018E000FEF7CAFE4846032100224FF00308FEF728
:1018F000C3FE069606AE01244FF0020A2846314682
:10190000CDE90747CDF824A0FEF7A6FD48463146AD
:10191000CDE90684CDE9087AFEF79EFD4FF47040CC
:10192000CDE90607484631460894FEF795FD40F29A
:101930008818C2F20008A9F58431404640F8101F0B
:1019400047214FF6FF720997CDE90777CDE9007778
:10195000C0E90117C0E903278761FFF74BFA28B1F7
:10196000EFF3108072B600BFFEE700BF4FF4805067
:1019700008F11006069006A93046FFF70FFB28B1C4
:10198000EFF3108072B600BFFEE700BF6946304635
:10199000FFF7F2F920B1EFF3108072B6FEE700BF57
:1019A00040F2E0100021C2F200004FF080424723D5
:1019B00044F61F670391CDE90111CDE91011CDE97E
:1019C0000B11CDE90911C0E90023C0E9021701613B
:1019D0008161FFF70FFA28B1EFF3108072B600BFF4
:1019E000FEE700BF4FF48050009040F2E010C2F2DA
:1019F00000006946FFF7D2FA20B1EFF3108072B60B
:101A0000FEE700BF40F2E010C2F20000FFF7B0FCBA
:101A100020B1EFF3108072B6FEE700BF40F2E01095
:101A2000C2F2000010A9FFF7A7F928B1EFF3108068
:101A300072B600BFFEE700BF602040F2E0150690DE
:101A40000020C2F20005CDE907000A9006A9284649
:101A50000C22FFF793FB28B1EFF3108072B600BFA2
:101A6000FEE700BF2846FFF763FB3046FFF762FA48
:101A700028460C21FFF7F4FC40F20C06C2F20006E7
:101A80004FF4FA7A40F2DC5B0327012421E000BF27
:101A90000220FEF7CDFC48464FF48051FEF7E6FDEC
:101AA000002800F0078101203460FEF7CFFB4FF4DF
:101AB0007A70FEF7BDFC2868C0F840A040F2DC5008
:101AC000FEF7B6FC2868C0F840B040F2DC50FEF7E4
:101AD000AFFC48464FF48051FEF7C8FDC8F800003F
:101AE00048464FF40051FEF7C1FDC8F804004846CF
:101AF0004FF48041FEF7BAFDC8F8080048464FF49D
:101B00000041FEF7B3FD3168C8F80C000846FEF747
:101B10009DFB48464FF40041FEF7A8FD98BB02200C
:101B2000FEF786FC48464FF40041FEF79FFD98B94A
:101B300048464FF40041FEF799FD0028F8D0306880
:101B4000032809DC0130306000F0CCF83068FEF783
:101B50007DFB30680428F5DB042030600420FEF7AC
:101B600075FB4FF47A70FEF763FC2868C0F840A05C
:101B700040F2DC50FEF75CFC2868C0F840B040F250
:101B8000DC50FEF755FC48464FF48041FEF76EFDF1
:101B900000283FD10220FEF74BFC48464FF480411D
:101BA000FEF764FD00BB00BF48464FF48041FEF7DE
:101BB0005DFD0028F8D03068042809DB013830606A
:101BC000FFF7CEFC3068FEF741FB30680328F5DCF8
:101BD000022809DC0130306000F084F83068FEF73C
:101BE00035FB30680328F5DB03203760FEF72EFB5A
:101BF0004FF47A70FEF71CFC2868C0F840A040F251
:101C0000DC50FEF715FC2868C0F840B040F2DC500C
:101C1000FEF70EFC48464FF40051FEF727FD002862
:101C20003FD10220FEF704FC48464FF40051FEF776
:101C30001DFDF8B948464FF40051FEF717FD002886
:101C4000F8D03068032809DB01383060FFF788FCE2
:101C50003068FEF7FBFA30680228F5DC012809DC61
:101C60000130306000F03EF83068FEF7EFFA30687F
:101C70000228F5DB022030600220FEF7E7FA4FF47D
:101C80007A70FEF7D5FB2868C0F840A040F2DC501F
:101C9000FEF7CEFB2868C0F840B040F2DC50FEF7FB
:101CA000C7FB48464FF48051FEF7E0FC00287FF464
:101CB00010AFEDE648464FF48051FEF7D7FC002800
:101CC000F8D030680228FFF6EEAE00BF0138306071
:101CD000FFF746FC3068FEF7B9FA30680128F5DCFA
:101CE000E1E600002DE9F04381B040F60004C4F2C3
:101CF000010440F20C0840F288174FF00009C2F2CC
:101D0000000804F58065C2F20007002605E000BF68
:101D10000136B6F5FA7F00F04781D8F80000FEF7EB
:101D200095FA284602210122FEF7A6FC2846012149
:101D30000022FEF7A1FC204680210022FEF79CFC39
:101D4000204640210022FEF797FC3869C0F8249015
:101D5000416AC9087C290BD8416AC9087C2907D87F
:101D6000416AC9087C2903D8416AB1F57A7FEFD36B
:101D7000284602210122FEF77FFC2846012101228C
:101D8000FEF77AFC204680210022FEF775FC2046F3
:101D900040210022FEF770FC3869C0F8249000BF93
:101DA000416AC9087C290BD8416AC9087C2907D82F
:101DB000416AC9087C2903D8416AB1F57A7FEFD31B
:101DC000284602210022FEF757FC28460121012265
:101DD000FEF752FC204680210022FEF74DFC2046F3
:101DE00040210022FEF748FC3869C0F8249000BF6B
:101DF000416AC9087C290BD8416AC9087C2907D8DF
:101E0000416AC9087C2903D8416AB1F57A7FEFD3CA
:101E1000284602210022FEF72FFC2846012101223C
:101E2000FEF72AFC204680210122FEF725FC2046F1
:101E300040210022FEF720FC3869C0F8249000BF42
:101E4000416AC9087C290BD8416AC9087C2907D88E
:101E5000416AC9087C2903D8416AB1F57A7FEFD37A
:101E6000284602210022FEF707FC28460121002215
:101E7000FEF702FC204680210122FEF7FDFB2046F2
:101E800040210022FEF7F8FB3869C0F8249000BF1B
:101E9000416AC9087C290BD8416AC9087C2907D83E
:101EA000416AC9087C2903D8416AB1F57A7FEFD32A
:101EB000284602210022FEF7DFFB284601210022EE
:101EC000FEF7DAFB204680210122FEF7D5FB2046F3
:101ED00040210122FEF7D0FB3869C0F8249000BFF2
:101EE000416AC9087C290BD8416AC9087C2907D8EE
:101EF000416AC9087C2903D8416AB1F57A7FEFD3DA
:101F0000284602210022FEF7B7FB284601210022C5
:101F1000FEF7B2FB204680210022FEF7ADFB2046F3
:101F200040210122FEF7A8FB3869C0F8249000BFC9
:101F3000416AC9087C290BD8416AC9087C2907D89D
:101F4000416AC9087C2903D8416AB1F57A7FEFD389
:101F5000284602210122FEF78FFB2846012100229C
:101F6000FEF78AFB204680210022FEF785FB2046F3
:101F700040210122FEF780FB3869C0F8249000BFA1
:101F8000416AC9087C293FF6C3AE416AC9087C2969
:101F90003FF6BEAE416AC9087C293FF6B9AE416A38
:101FA000B1F57A7FECD3B3E601B0BDE8F08301026E
:101FB00000000000000000000102030406070809F9
:101FC00002030405060708090A0B0C0D0E0F10107A
:101FD000F01F000800000020280100002801000870
:101FE000182100082801002008070000440100080B
:101FF00001000000100000000024F40001000000B7
:1020000001000000010000000100000001000000CC
:1020100001000000010000000000000000000000BE
:1020200001000000010000000000000000000000AE
:10203000000000000000000001000000010000009E
:10204000000000000100000001000000000000008E
:10205000010000000100000001000000010000007C
:10206000010000000000000000000000010000006E
:10207000000000000100000001000000000000005E
:10208000000000000100000001000000010000004D
:10209000000000000100000001000000000000003E
:1020A000010000000100000001000000000000002D
:1020B000010000000100000001000000010000001C
:1020C000010000000100000001000000010000000C
:1020D0000000000000000000000000000000000000
:1020E00001000000010000000100000001000000EC
:1020F00001000000010000000100000001000000DC
:1021000001000000010000000100000000000000CC
:082110000100000001000000C5
:04000005080000ED02
:00000001FF
